{"items":[{"priority_fee":"2965074816342257","raw_input":"0xb249cd2d0000000000000000000000000000000000000000000000000000000000000020000000000000000000000000000000000000000000000000000000000000001968747470733a2f2f68696c61636261746f72696161612e636300000000000000","is_pending_update":false,"result":"success","hash":"0xcc5109e33fa2ba0c0fc7ff98eb93869ad0190d2014d78ee059f7311f8501ab05","max_fee_per_gas":"449335830286","revert_reason":null,"confirmation_duration":[0,1495.0],"transaction_burnt_fee":"10047723364653844","type":2,"token_transfers_overflow":null,"confirmations":4823,"position":137,"max_priority_fee_per_gas":"73826029339","transaction_tag":null,"created_contract":null,"value":"0","from":{"ens_domain_name":null,"hash":"0x2F9091AB4Ec91c0dAa67a7660c81A922328A8096","implementations":[],"is_contract":false,"is_scam":false,"is_verified":false,"metadata":null,"name":null,"private_tags":[],"proxy_type":null,"public_tags":[],"reputation":"ok","watchlist_names":[]},"gas_used":"40163","status":"ok","to":{"ens_domain_name":null,"hash":"0x0C7Cb01C83203aC0a50Abc3a9AFF3c9Ca727eF55","implementations":[],"is_contract":true,"is_scam":false,"is_verified":false,"metadata":null,"name":null,"private_tags":[],"proxy_type":null,"public_tags":[],"reputation":"ok","watchlist_names":[]},"authorization_list":[],"method":"updateDomain","fee":{"type":"actual","value":"13012798180996101"},"gas_limit":"40533","gas_price":"323999655927","decoded_input":{"method_call":"updateDomain(string newDomain)","method_id":"b249cd2d","parameters":[{"name":"newDomain","type":"string","value":"https://hilacbatoriaaa.cc"}]},"fhe_operations_count":0,"token_transfers":null,"base_fee_per_gas":"250173626588","timestamp":"2026-07-08T08:33:22.000000Z","nonce":3,"historic_exchange_rate":null,"transaction_types":["contract_call"],"exchange_rate":"0.075046","block_number":89863071,"has_error_in_internal_transactions":null},{"priority_fee":"5627800442149193","raw_input":"0xb249cd2d0000000000000000000000000000000000000000000000000000000000000020000000000000000000000000000000000000000000000000000000000000001768747470733a2f2f706c756861626f7672612e696e666f000000000000000000","is_pending_update":false,"result":"success","hash":"0x8d0d713b33372567e47582b6fcfbb49199f2e2ca92a13071e161c95dfba5aef5","max_fee_per_gas":"510354225320","revert_reason":null,"confirmation_duration":[0,1495.0],"transaction_burnt_fee":"9989822254937745","type":2,"token_transfers_overflow":null,"confirmations":87335,"position":95,"max_priority_fee_per_gas":"140207788987","transaction_tag":null,"created_contract":null,"value":"0","from":{"ens_domain_name":null,"hash":"0x2F9091AB4Ec91c0dAa67a7660c81A922328A8096","implementations":[],"is_contract":false,"is_scam":false,"is_verified":false,"metadata":null,"name":null,"private_tags":[],"proxy_type":null,"public_tags":[],"reputation":"ok","watchlist_names":[]},"gas_used":"40139","status":"ok","to":{"ens_domain_name":null,"hash":"0x0C7Cb01C83203aC0a50Abc3a9AFF3c9Ca727eF55","implementations":[],"is_contract":true,"is_scam":false,"is_verified":false,"metadata":null,"name":null,"private_tags":[],"proxy_type":null,"public_tags":[],"reputation":"ok","watchlist_names":[]},"authorization_list":[],"method":"updateDomain","fee":{"type":"actual","value":"15617622697086938"},"gas_limit":"40509","gas_price":"389088484942","decoded_input":{"method_call":"updateDomain(string newDomain)","method_id":"b249cd2d","parameters":[{"name":"newDomain","type":"string","value":"https://pluhabovra.info"}]},"fhe_operations_count":0,"token_transfers":null,"base_fee_per_gas":"248880695955","timestamp":"2026-07-06T22:10:34.000000Z","nonce":2,"historic_exchange_rate":null,"transaction_types":["contract_call"],"exchange_rate":"0.075046","block_number":89780559,"has_error_in_internal_transactions":null},{"priority_fee":"7030347527352790","raw_input":"0xb249cd2d0000000000000000000000000000000000000000000000000000000000000020000000000000000000000000000000000000000000000000000000000000001568747470733a2f2f687569736875766973682e63630000000000000000000000","is_pending_update":false,"result":"success","hash":"0x82a5973cb14b4a34f82ae94cc59fdace6de23405aded4b33770348a83046c87a","max_fee_per_gas":"519164755254","revert_reason":null,"confirmation_duration":[0,1495.0],"transaction_burnt_fee":"10030411163794715","type":2,"token_transfers_overflow":null,"confirmations":131034,"position":78,"max_priority_fee_per_gas":"175254830546","transaction_tag":null,"created_contract":null,"value":"0","from":{"ens_domain_name":null,"hash":"0x2F9091AB4Ec91c0dAa67a7660c81A922328A8096","implementations":[],"is_contract":false,"is_scam":false,"is_verified":false,"metadata":null,"name":null,"private_tags":[],"proxy_type":null,"public_tags":[],"reputation":"ok","watchlist_names":[]},"gas_used":"40115","status":"ok","to":{"ens_domain_name":null,"hash":"0x0C7Cb01C83203aC0a50Abc3a9AFF3c9Ca727eF55","implementations":[],"is_contract":true,"is_scam":false,"is_verified":false,"metadata":null,"name":null,"private_tags":[],"proxy_type":null,"public_tags":[],"reputation":"ok","watchlist_names":[]},"authorization_list":[],"method":"updateDomain","fee":{"type":"actual","value":"17060758691147505"},"gas_limit":"40485","gas_price":"425296240587","decoded_input":{"method_call":"updateDomain(string newDomain)","method_id":"b249cd2d","parameters":[{"name":"newDomain","type":"string","value":"https://huishuvish.cc"}]},"fhe_operations_count":0,"token_transfers":null,"base_fee_per_gas":"250041410041","timestamp":"2026-07-06T03:58:05.000000Z","nonce":1,"historic_exchange_rate":null,"transaction_types":["contract_call"],"exchange_rate":"0.075046","block_number":89736860,"has_error_in_internal_transactions":null},{"priority_fee":"81033803833440000","raw_input":"0x608060405234801561000f575f5ffd5b50604051610e85380380610e85833981810160405281019061003191906101d3565b335f5f6101000a81548173ffffffffffffffffffffffffffffffffffffffff021916908373ffffffffffffffffffffffffffffffffffffffff160217905550806001908161007f919061042a565b50506104f9565b5f604051905090565b5f5ffd5b5f5ffd5b5f5ffd5b5f5ffd5b5f601f19601f8301169050919050565b7f4e487b71000000000000000000000000000000000000000000000000000000005f52604160045260245ffd5b6100e58261009f565b810181811067ffffffffffffffff82111715610104576101036100af565b5b80604052505050565b5f610116610086565b905061012282826100dc565b919050565b5f67ffffffffffffffff821115610141576101406100af565b5b61014a8261009f565b9050602081019050919050565b8281835e5f83830152505050565b5f61017761017284610127565b61010d565b9050828152602081018484840111156101935761019261009b565b5b61019e848285610157565b509392505050565b5f82601f8301126101ba576101b9610097565b5b81516101ca848260208601610165565b91505092915050565b5f602082840312156101e8576101e761008f565b5b5f82015167ffffffffffffffff81111561020557610204610093565b5b610211848285016101a6565b91505092915050565b5f81519050919050565b7f4e487b71000000000000000000000000000000000000000000000000000000005f52602260045260245ffd5b5f600282049050600182168061026857607f821691505b60208210810361027b5761027a610224565b5b50919050565b5f819050815f5260205f209050919050565b5f6020601f8301049050919050565b5f82821b905092915050565b5f600883026102dd7fffffffffffffffffffffffffffffffffffffffffffffffffffffffffffffffff826102a2565b6102e786836102a2565b95508019841693508086168417925050509392505050565b5f819050919050565b5f819050919050565b5f61032b610326610321846102ff565b610308565b6102ff565b9050919050565b5f819050919050565b61034483610311565b61035861035082610332565b8484546102ae565b825550505050565b5f5f905090565b61036f610360565b61037a81848461033b565b505050565b5b8181101561039d576103925f82610367565b600181019050610380565b5050565b601f8211156103e2576103b381610281565b6103bc84610293565b810160208510156103cb578190505b6103df6103d785610293565b83018261037f565b50505b505050565b5f82821c905092915050565b5f6104025f19846008026103e7565b1980831691505092915050565b5f61041a83836103f3565b9150826002028217905092915050565b6104338261021a565b67ffffffffffffffff81111561044c5761044b6100af565b5b6104568254610251565b6104618282856103a1565b5f60209050601f831160018114610492575f8415610480578287015190505b61048a858261040f565b8655506104f1565b601f1984166104a086610281565b5f5b828110156104c7578489015182556001820191506020850194506020810190506104a2565b868310156104e457848901516104e0601f8916826103f3565b8355505b6001600288020188555050505b505050505050565b61097f806105065f395ff3fe608060405234801561000f575f5ffd5b506004361061004a575f3560e01c8063b249cd2d1461004e578063b68d18091461006a578063e096a09114610088578063f851a440146100a6575b5f5ffd5b610068600480360381019061006391906104b8565b6100c4565b005b61007261022b565b60405161007f919061055f565b60405180910390f35b6100906102bb565b60405161009d919061055f565b60405180910390f35b6100ae610347565b6040516100bb91906105be565b60405180910390f35b5f5f9054906101000a900473ffffffffffffffffffffffffffffffffffffffff1673ffffffffffffffffffffffffffffffffffffffff163373ffffffffffffffffffffffffffffffffffffffff1614610152576040517f08c379a000000000000000000000000000000000000000000000000000000000815260040161014990610621565b60405180910390fd5b5f600180546101609061066c565b80601f016020809104026020016040519081016040528092919081815260200182805461018c9061066c565b80156101d75780601f106101ae576101008083540402835291602001916101d7565b820191905f5260205f20905b8154815290600101906020018083116101ba57829003601f168201915b5050505050905081600190816101ed9190610845565b507f0e540ff014403c501655ba5fcd7f36ec5f6df99f851e513e7d6c4c93da112174818360405161021f929190610914565b60405180910390a15050565b60606001805461023a9061066c565b80601f01602080910402602001604051908101604052809291908181526020018280546102669061066c565b80156102b15780601f10610288576101008083540402835291602001916102b1565b820191905f5260205f20905b81548152906001019060200180831161029457829003601f168201915b5050505050905090565b600180546102c89061066c565b80601f01602080910402602001604051908101604052809291908181526020018280546102f49061066c565b801561033f5780601f106103165761010080835404028352916020019161033f565b820191905f5260205f20905b81548152906001019060200180831161032257829003601f168201915b505050505081565b5f5f9054906101000a900473ffffffffffffffffffffffffffffffffffffffff1681565b5f604051905090565b5f5ffd5b5f5ffd5b5f5ffd5b5f5ffd5b5f601f19601f8301169050919050565b7f4e487b71000000000000000000000000000000000000000000000000000000005f52604160045260245ffd5b6103ca82610384565b810181811067ffffffffffffffff821117156103e9576103e8610394565b5b80604052505050565b5f6103fb61036b565b905061040782826103c1565b919050565b5f67ffffffffffffffff82111561042657610425610394565b5b61042f82610384565b9050602081019050919050565b828183375f83830152505050565b5f61045c6104578461040c565b6103f2565b90508281526020810184848401111561047857610477610380565b5b61048384828561043c565b509392505050565b5f82601f83011261049f5761049e61037c565b5b81356104af84826020860161044a565b91505092915050565b5f602082840312156104cd576104cc610374565b5b5f82013567ffffffffffffffff8111156104ea576104e9610378565b5b6104f68482850161048b565b91505092915050565b5f81519050919050565b5f82825260208201905092915050565b8281835e5f83830152505050565b5f610531826104ff565b61053b8185610509565b935061054b818560208601610519565b61055481610384565b840191505092915050565b5f6020820190508181035f8301526105778184610527565b905092915050565b5f73ffffffffffffffffffffffffffffffffffffffff82169050919050565b5f6105a88261057f565b9050919050565b6105b88161059e565b82525050565b5f6020820190506105d15f8301846105af565b92915050565b7f4e6f742061646d696e00000000000000000000000000000000000000000000005f82015250565b5f61060b600983610509565b9150610616826105d7565b602082019050919050565b5f6020820190508181035f830152610638816105ff565b9050919050565b7f4e487b71000000000000000000000000000000000000000000000000000000005f52602260045260245ffd5b5f600282049050600182168061068357607f821691505b6020821081036106965761069561063f565b5b50919050565b5f819050815f5260205f209050919050565b5f6020601f8301049050919050565b5f82821b905092915050565b5f600883026106f87fffffffffffffffffffffffffffffffffffffffffffffffffffffffffffffffff826106bd565b61070286836106bd565b95508019841693508086168417925050509392505050565b5f819050919050565b5f819050919050565b5f61074661074161073c8461071a565b610723565b61071a565b9050919050565b5f819050919050565b61075f8361072c565b61077361076b8261074d565b8484546106c9565b825550505050565b5f5f905090565b61078a61077b565b610795818484610756565b505050565b5b818110156107b8576107ad5f82610782565b60018101905061079b565b5050565b601f8211156107fd576107ce8161069c565b6107d7846106ae565b810160208510156107e6578190505b6107fa6107f2856106ae565b83018261079a565b50505b505050565b5f82821c905092915050565b5f61081d5f1984600802610802565b1980831691505092915050565b5f610835838361080e565b9150826002028217905092915050565b61084e826104ff565b67ffffffffffffffff81111561086757610866610394565b5b610871825461066c565b61087c8282856107bc565b5f60209050601f8311600181146108ad575f841561089b578287015190505b6108a5858261082a565b86555061090c565b601f1984166108bb8661069c565b5f5b828110156108e2578489015182556001820191506020850194506020810190506108bd565b868310156108ff57848901516108fb601f89168261080e565b8355505b6001600288020188555050505b505050505050565b5f6040820190508181035f83015261092c8185610527565b905081810360208301526109408184610527565b9050939250505056fea26469706673582212204c07fd0679d162181526de7f9676dec508b563e8a9f522d69f8ed44d97fd28e364736f6c634300081e00330000000000000000000000000000000000000000000000000000000000000020000000000000000000000000000000000000000000000000000000000000001968747470733a2f2f657272726b6f746d6c6b706f792e78797a00000000000000","is_pending_update":false,"result":"success","hash":"0xc9a82598d205951dded13ee302f53bac69d8845710a2dea1f6632a1250bbcaec","max_fee_per_gas":"459047012670","revert_reason":null,"confirmation_duration":[0,1495.0],"transaction_burnt_fee":"164552020926108066","type":2,"token_transfers_overflow":null,"confirmations":508352,"position":111,"max_priority_fee_per_gas":"124641120000","transaction_tag":null,"created_contract":{"ens_domain_name":null,"hash":"0x0C7Cb01C83203aC0a50Abc3a9AFF3c9Ca727eF55","implementations":[],"is_contract":true,"is_scam":false,"is_verified":false,"metadata":null,"name":null,"private_tags":[],"proxy_type":null,"public_tags":[],"reputation":"ok","watchlist_names":[]},"value":"0","from":{"ens_domain_name":null,"hash":"0x2F9091AB4Ec91c0dAa67a7660c81A922328A8096","implementations":[],"is_contract":false,"is_scam":false,"is_verified":false,"metadata":null,"name":null,"private_tags":[],"proxy_type":null,"public_tags":[],"reputation":"ok","watchlist_names":[]},"gas_used":"650137","status":"ok","to":null,"authorization_list":[],"method":null,"fee":{"type":"actual","value":"245585824759548066"},"gas_limit":"656464","gas_price":"377744728818","decoded_input":null,"fhe_operations_count":0,"token_transfers":null,"base_fee_per_gas":"253103608818","timestamp":"2026-06-29T14:45:08.000000Z","nonce":0,"historic_exchange_rate":null,"transaction_types":["contract_creation"],"exchange_rate":"0.075046","block_number":89359542,"has_error_in_internal_transactions":null}],"next_page_params":null}