{
  "items": [
    {
      "priority_fee": "2987703482258460",
      "raw_input": "0xb249cd2d0000000000000000000000000000000000000000000000000000000000000020000000000000000000000000000000000000000000000000000000000000002a68747470733a2f2f617574686f72697a6174696f6e2d63646e2d70726573732d656e7465722e696e666f00000000000000000000000000000000000000000000",
      "is_pending_update": false,
      "result": "success",
      "hash": "0x50e9540f351241e639238cc1bb94090c3fd4947d64799b8faa629102257187ba",
      "max_fee_per_gas": "420729297055",
      "revert_reason": null,
      "confirmation_duration": [
        0,
        1495.0
      ],
      "transaction_burnt_fee": "13822717038098880",
      "type": 2,
      "token_transfers_overflow": null,
      "confirmations": 109868,
      "position": 86,
      "max_priority_fee_per_gas": "53600708329",
      "transaction_tag": null,
      "created_contract": null,
      "value": "0",
      "from": {
        "ens_domain_name": null,
        "hash": "0xCaf2C54E400437da717cF215181B170F65187aBf",
        "implementations": [],
        "is_contract": false,
        "is_scam": false,
        "is_verified": false,
        "metadata": null,
        "name": null,
        "private_tags": [],
        "proxy_type": null,
        "public_tags": [],
        "reputation": "ok",
        "watchlist_names": []
      },
      "gas_used": "55740",
      "status": "ok",
      "to": {
        "ens_domain_name": null,
        "hash": "0xB6bC9e1D0b2fB96Ab7C47E04Cb0BE477410bC1f2",
        "implementations": [],
        "is_contract": true,
        "is_scam": false,
        "is_verified": false,
        "metadata": null,
        "name": null,
        "private_tags": [],
        "proxy_type": null,
        "public_tags": [],
        "reputation": "ok",
        "watchlist_names": []
      },
      "authorization_list": [],
      "method": "updateDomain",
      "fee": {
        "type": "actual",
        "value": "16810420520357340"
      },
      "gas_limit": "56544",
      "gas_price": "301586302841",
      "decoded_input": {
        "method_call": "updateDomain(string newDomain)",
        "method_id": "b249cd2d",
        "parameters": [
          {
            "name": "newDomain",
            "type": "string",
            "value": "https://authorization-cdn-press-enter.info"
          }
        ]
      },
      "fhe_operations_count": 0,
      "token_transfers": null,
      "base_fee_per_gas": "247985594512",
      "timestamp": "2026-07-06T23:32:46.000000Z",
      "nonce": 933,
      "historic_exchange_rate": null,
      "transaction_types": [
        "contract_call"
      ],
      "exchange_rate": "0.075923",
      "block_number": 89783847,
      "has_error_in_internal_transactions": null
    },
    {
      "priority_fee": "2149625000000000",
      "raw_input": "0xb249cd2d0000000000000000000000000000000000000000000000000000000000000020000000000000000000000000000000000000000000000000000000000000002268747470733a2f2f617574686f72697a6174696f6e2d69642d636f64652e696e666f000000000000000000000000000000000000000000000000000000000000",
      "is_pending_update": false,
      "result": "success",
      "hash": "0x5dfbf987fd8837233d40e87026a7a0c3cd40c9d37c05b613cdcd47859121fbc2",
      "max_fee_per_gas": "391040003647",
      "revert_reason": null,
      "confirmation_duration": [
        0,
        1495.0
      ],
      "transaction_burnt_fee": "21538510546754535",
      "type": 2,
      "token_transfers_overflow": null,
      "confirmations": 252059,
      "position": 105,
      "max_priority_fee_per_gas": "25000000000",
      "transaction_tag": null,
      "created_contract": null,
      "value": "0",
      "from": {
        "ens_domain_name": null,
        "hash": "0xCaf2C54E400437da717cF215181B170F65187aBf",
        "implementations": [],
        "is_contract": false,
        "is_scam": false,
        "is_verified": false,
        "metadata": null,
        "name": null,
        "private_tags": [],
        "proxy_type": null,
        "public_tags": [],
        "reputation": "ok",
        "watchlist_names": []
      },
      "gas_used": "85985",
      "status": "ok",
      "to": {
        "ens_domain_name": null,
        "hash": "0xB6bC9e1D0b2fB96Ab7C47E04Cb0BE477410bC1f2",
        "implementations": [],
        "is_contract": true,
        "is_scam": false,
        "is_verified": false,
        "metadata": null,
        "name": null,
        "private_tags": [],
        "proxy_type": null,
        "public_tags": [],
        "reputation": "ok",
        "watchlist_names": []
      },
      "authorization_list": [],
      "method": "updateDomain",
      "fee": {
        "type": "actual",
        "value": "23688135546754535"
      },
      "gas_limit": "86909",
      "gas_price": "275491487431",
      "decoded_input": {
        "method_call": "updateDomain(string newDomain)",
        "method_id": "b249cd2d",
        "parameters": [
          {
            "name": "newDomain",
            "type": "string",
            "value": "https://authorization-id-code.info"
          }
        ]
      },
      "fhe_operations_count": 0,
      "token_transfers": null,
      "base_fee_per_gas": "250491487431",
      "timestamp": "2026-07-04T12:17:59.000000Z",
      "nonce": 932,
      "historic_exchange_rate": null,
      "transaction_types": [
        "contract_call"
      ],
      "exchange_rate": "0.075923",
      "block_number": 89641656,
      "has_error_in_internal_transactions": null
    },
    {
      "priority_fee": "3482286334719712",
      "raw_input": "0xb249cd2d0000000000000000000000000000000000000000000000000000000000000020000000000000000000000000000000000000000000000000000000000000001f68747470733a2f2f617574686f72697a6174696f6e2d636f64652e6265657200",
      "is_pending_update": false,
      "result": "success",
      "hash": "0x4e5e20375452d36347c49372094f5763fb7ca3edf49265678096c2b31e3d19ae",
      "max_fee_per_gas": "466747313361",
      "revert_reason": null,
      "confirmation_duration": [
        0,
        1495.0
      ],
      "transaction_burnt_fee": "9807713812602888",
      "type": 2,
      "token_transfers_overflow": null,
      "confirmations": 276724,
      "position": 111,
      "max_priority_fee_per_gas": "88347024932",
      "transaction_tag": null,
      "created_contract": null,
      "value": "0",
      "from": {
        "ens_domain_name": null,
        "hash": "0xCaf2C54E400437da717cF215181B170F65187aBf",
        "implementations": [],
        "is_contract": false,
        "is_scam": false,
        "is_verified": false,
        "metadata": null,
        "name": null,
        "private_tags": [],
        "proxy_type": null,
        "public_tags": [],
        "reputation": "ok",
        "watchlist_names": []
      },
      "gas_used": "39416",
      "status": "ok",
      "to": {
        "ens_domain_name": null,
        "hash": "0xB6bC9e1D0b2fB96Ab7C47E04Cb0BE477410bC1f2",
        "implementations": [],
        "is_contract": true,
        "is_scam": false,
        "is_verified": false,
        "metadata": null,
        "name": null,
        "private_tags": [],
        "proxy_type": null,
        "public_tags": [],
        "reputation": "ok",
        "watchlist_names": []
      },
      "authorization_list": [],
      "method": "updateDomain",
      "fee": {
        "type": "actual",
        "value": "13290000147322600"
      },
      "gas_limit": "39785",
      "gas_price": "337172725475",
      "decoded_input": {
        "method_call": "updateDomain(string newDomain)",
        "method_id": "b249cd2d",
        "parameters": [
          {
            "name": "newDomain",
            "type": "string",
            "value": "https://authorization-code.beer"
          }
        ]
      },
      "fhe_operations_count": 0,
      "token_transfers": null,
      "base_fee_per_gas": "248825700543",
      "timestamp": "2026-07-04T02:01:22.000000Z",
      "nonce": 931,
      "historic_exchange_rate": null,
      "transaction_types": [
        "contract_call"
      ],
      "exchange_rate": "0.075923",
      "block_number": 89616991,
      "has_error_in_internal_transactions": null
    },
    {
      "priority_fee": "2835110802407728",
      "raw_input": "0xb249cd2d0000000000000000000000000000000000000000000000000000000000000020000000000000000000000000000000000000000000000000000000000000001f68747470733a2f2f617574686f72697a6174696f6e2d636f64652e696e666f00",
      "is_pending_update": false,
      "result": "success",
      "hash": "0x4288eba3f4c25ebc9719377fb3cba54b35cc56a44ccad9306ee48eec9b8ccd71",
      "max_fee_per_gas": "442200183228",
      "revert_reason": null,
      "confirmation_duration": [
        0,
        1495.0
      ],
      "transaction_burnt_fee": "9927791694884648",
      "type": 2,
      "token_transfers_overflow": null,
      "confirmations": 374078,
      "position": 134,
      "max_priority_fee_per_gas": "71927917658",
      "transaction_tag": null,
      "created_contract": null,
      "value": "0",
      "from": {
        "ens_domain_name": null,
        "hash": "0xCaf2C54E400437da717cF215181B170F65187aBf",
        "implementations": [],
        "is_contract": false,
        "is_scam": false,
        "is_verified": false,
        "metadata": null,
        "name": null,
        "private_tags": [],
        "proxy_type": null,
        "public_tags": [],
        "reputation": "ok",
        "watchlist_names": []
      },
      "gas_used": "39416",
      "status": "ok",
      "to": {
        "ens_domain_name": null,
        "hash": "0xB6bC9e1D0b2fB96Ab7C47E04Cb0BE477410bC1f2",
        "implementations": [],
        "is_contract": true,
        "is_scam": false,
        "is_verified": false,
        "metadata": null,
        "name": null,
        "private_tags": [],
        "proxy_type": null,
        "public_tags": [],
        "reputation": "ok",
        "watchlist_names": []
      },
      "authorization_list": [],
      "method": "updateDomain",
      "fee": {
        "type": "actual",
        "value": "12762902497292376"
      },
      "gas_limit": "39785",
      "gas_price": "323800043061",
      "decoded_input": {
        "method_call": "updateDomain(string newDomain)",
        "method_id": "b249cd2d",
        "parameters": [
          {
            "name": "newDomain",
            "type": "string",
            "value": "https://authorization-code.info"
          }
        ]
      },
      "fhe_operations_count": 0,
      "token_transfers": null,
      "base_fee_per_gas": "251872125403",
      "timestamp": "2026-07-02T09:27:31.000000Z",
      "nonce": 930,
      "historic_exchange_rate": null,
      "transaction_types": [
        "contract_call"
      ],
      "exchange_rate": "0.075923",
      "block_number": 89519637,
      "has_error_in_internal_transactions": null
    },
    {
      "priority_fee": "2204480984485728",
      "raw_input": "0xb249cd2d0000000000000000000000000000000000000000000000000000000000000020000000000000000000000000000000000000000000000000000000000000001f68747470733a2f2f636f6465766572696669636174726f72636c2e696e666f00",
      "is_pending_update": false,
      "result": "success",
      "hash": "0xd4fe345d61e588abcb09770e65c3ee5917da146a6953218ce136668417540898",
      "max_fee_per_gas": "434357644199",
      "revert_reason": null,
      "confirmation_duration": [
        0,
        1495.0
      ],
      "transaction_burnt_fee": "9779337920215032",
      "type": 2,
      "token_transfers_overflow": null,
      "confirmations": 374374,
      "position": 122,
      "max_priority_fee_per_gas": "55928581908",
      "transaction_tag": null,
      "created_contract": null,
      "value": "0",
      "from": {
        "ens_domain_name": null,
        "hash": "0xCaf2C54E400437da717cF215181B170F65187aBf",
        "implementations": [],
        "is_contract": false,
        "is_scam": false,
        "is_verified": false,
        "metadata": null,
        "name": null,
        "private_tags": [],
        "proxy_type": null,
        "public_tags": [],
        "reputation": "ok",
        "watchlist_names": []
      },
      "gas_used": "39416",
      "status": "ok",
      "to": {
        "ens_domain_name": null,
        "hash": "0xB6bC9e1D0b2fB96Ab7C47E04Cb0BE477410bC1f2",
        "implementations": [],
        "is_contract": true,
        "is_scam": false,
        "is_verified": false,
        "metadata": null,
        "name": null,
        "private_tags": [],
        "proxy_type": null,
        "public_tags": [],
        "reputation": "ok",
        "watchlist_names": []
      },
      "authorization_list": [],
      "method": "updateDomain",
      "fee": {
        "type": "actual",
        "value": "11983818904700760"
      },
      "gas_limit": "39785",
      "gas_price": "304034374485",
      "decoded_input": {
        "method_call": "updateDomain(string newDomain)",
        "method_id": "b249cd2d",
        "parameters": [
          {
            "name": "newDomain",
            "type": "string",
            "value": "https://codeverificatrorcl.info"
          }
        ]
      },
      "fhe_operations_count": 0,
      "token_transfers": null,
      "base_fee_per_gas": "248105792577",
      "timestamp": "2026-07-02T09:20:07.000000Z",
      "nonce": 929,
      "historic_exchange_rate": null,
      "transaction_types": [
        "contract_call"
      ],
      "exchange_rate": "0.075923",
      "block_number": 89519341,
      "has_error_in_internal_transactions": null
    },
    {
      "priority_fee": "2783693051094696",
      "raw_input": "0xb249cd2d0000000000000000000000000000000000000000000000000000000000000020000000000000000000000000000000000000000000000000000000000000001f68747470733a2f2f617574686f72697a6174696f6e2d636f64652e696e666f00",
      "is_pending_update": false,
      "result": "success",
      "hash": "0x8942df03bb4754a5b8eced6b3ac5eeec8947c574aed9dfc4e8fc2ea481747903",
      "max_fee_per_gas": "436703012125",
      "revert_reason": null,
      "confirmation_duration": [
        0,
        1495.0
      ],
      "transaction_burnt_fee": "9953987736751552",
      "type": 2,
      "token_transfers_overflow": null,
      "confirmations": 374656,
      "position": 138,
      "max_priority_fee_per_gas": "70623428331",
      "transaction_tag": null,
      "created_contract": null,
      "value": "0",
      "from": {
        "ens_domain_name": null,
        "hash": "0xCaf2C54E400437da717cF215181B170F65187aBf",
        "implementations": [],
        "is_contract": false,
        "is_scam": false,
        "is_verified": false,
        "metadata": null,
        "name": null,
        "private_tags": [],
        "proxy_type": null,
        "public_tags": [],
        "reputation": "ok",
        "watchlist_names": []
      },
      "gas_used": "39416",
      "status": "ok",
      "to": {
        "ens_domain_name": null,
        "hash": "0xB6bC9e1D0b2fB96Ab7C47E04Cb0BE477410bC1f2",
        "implementations": [],
        "is_contract": true,
        "is_scam": false,
        "is_verified": false,
        "metadata": null,
        "name": null,
        "private_tags": [],
        "proxy_type": null,
        "public_tags": [],
        "reputation": "ok",
        "watchlist_names": []
      },
      "authorization_list": [],
      "method": "updateDomain",
      "fee": {
        "type": "actual",
        "value": "12737680787846248"
      },
      "gas_limit": "39785",
      "gas_price": "323160158003",
      "decoded_input": {
        "method_call": "updateDomain(string newDomain)",
        "method_id": "b249cd2d",
        "parameters": [
          {
            "name": "newDomain",
            "type": "string",
            "value": "https://authorization-code.info"
          }
        ]
      },
      "fhe_operations_count": 0,
      "token_transfers": null,
      "base_fee_per_gas": "252536729672",
      "timestamp": "2026-07-02T09:13:04.000000Z",
      "nonce": 928,
      "historic_exchange_rate": null,
      "transaction_types": [
        "contract_call"
      ],
      "exchange_rate": "0.075923",
      "block_number": 89519059,
      "has_error_in_internal_transactions": null
    },
    {
      "priority_fee": "2910094392868208",
      "raw_input": "0xb249cd2d0000000000000000000000000000000000000000000000000000000000000020000000000000000000000000000000000000000000000000000000000000001f68747470733a2f2f636f6465766572696669636174726f72636c2e696e666f00",
      "is_pending_update": false,
      "result": "success",
      "hash": "0x96142ff39e3751205c4a67692e1a46c6f9dafebf950dbb9d410b801c04e334f8",
      "max_fee_per_gas": "443991856434",
      "revert_reason": null,
      "confirmation_duration": [
        0,
        1495.0
      ],
      "transaction_burnt_fee": "9804553206350968",
      "type": 2,
      "token_transfers_overflow": null,
      "confirmations": 436192,
      "position": 115,
      "max_priority_fee_per_gas": "73830281938",
      "transaction_tag": null,
      "created_contract": null,
      "value": "0",
      "from": {
        "ens_domain_name": null,
        "hash": "0xCaf2C54E400437da717cF215181B170F65187aBf",
        "implementations": [],
        "is_contract": false,
        "is_scam": false,
        "is_verified": false,
        "metadata": null,
        "name": null,
        "private_tags": [],
        "proxy_type": null,
        "public_tags": [],
        "reputation": "ok",
        "watchlist_names": []
      },
      "gas_used": "39416",
      "status": "ok",
      "to": {
        "ens_domain_name": null,
        "hash": "0xB6bC9e1D0b2fB96Ab7C47E04Cb0BE477410bC1f2",
        "implementations": [],
        "is_contract": true,
        "is_scam": false,
        "is_verified": false,
        "metadata": null,
        "name": null,
        "private_tags": [],
        "proxy_type": null,
        "public_tags": [],
        "reputation": "ok",
        "watchlist_names": []
      },
      "authorization_list": [],
      "method": "updateDomain",
      "fee": {
        "type": "actual",
        "value": "12714647599219176"
      },
      "gas_limit": "39785",
      "gas_price": "322575796611",
      "decoded_input": {
        "method_call": "updateDomain(string newDomain)",
        "method_id": "b249cd2d",
        "parameters": [
          {
            "name": "newDomain",
            "type": "string",
            "value": "https://codeverificatrorcl.info"
          }
        ]
      },
      "fhe_operations_count": 0,
      "token_transfers": null,
      "base_fee_per_gas": "248745514673",
      "timestamp": "2026-07-01T07:34:40.000000Z",
      "nonce": 927,
      "historic_exchange_rate": null,
      "transaction_types": [
        "contract_call"
      ],
      "exchange_rate": "0.075923",
      "block_number": 89457523,
      "has_error_in_internal_transactions": null
    },
    {
      "priority_fee": "5303013855846720",
      "raw_input": "0xb249cd2d0000000000000000000000000000000000000000000000000000000000000020000000000000000000000000000000000000000000000000000000000000001f68747470733a2f2f6964766572696669636174696f6e2d63646e2e696e666f00",
      "is_pending_update": false,
      "result": "success",
      "hash": "0xb5b441f9cef902106b19f11252e1b8385d779f315e0a1ae21f444c64244f5220",
      "max_fee_per_gas": "510472380650",
      "revert_reason": null,
      "confirmation_duration": [
        0,
        1495.0
      ],
      "transaction_burnt_fee": "9821217613984088",
      "type": 2,
      "token_transfers_overflow": null,
      "confirmations": 565148,
      "position": 92,
      "max_priority_fee_per_gas": "134539624920",
      "transaction_tag": null,
      "created_contract": null,
      "value": "0",
      "from": {
        "ens_domain_name": null,
        "hash": "0xCaf2C54E400437da717cF215181B170F65187aBf",
        "implementations": [],
        "is_contract": false,
        "is_scam": false,
        "is_verified": false,
        "metadata": null,
        "name": null,
        "private_tags": [],
        "proxy_type": null,
        "public_tags": [],
        "reputation": "ok",
        "watchlist_names": []
      },
      "gas_used": "39416",
      "status": "ok",
      "to": {
        "ens_domain_name": null,
        "hash": "0xB6bC9e1D0b2fB96Ab7C47E04Cb0BE477410bC1f2",
        "implementations": [],
        "is_contract": true,
        "is_scam": false,
        "is_verified": false,
        "metadata": null,
        "name": null,
        "private_tags": [],
        "proxy_type": null,
        "public_tags": [],
        "reputation": "ok",
        "watchlist_names": []
      },
      "authorization_list": [],
      "method": "updateDomain",
      "fee": {
        "type": "actual",
        "value": "15124231469830808"
      },
      "gas_limit": "39785",
      "gas_price": "383707922413",
      "decoded_input": {
        "method_call": "updateDomain(string newDomain)",
        "method_id": "b249cd2d",
        "parameters": [
          {
            "name": "newDomain",
            "type": "string",
            "value": "https://idverification-cdn.info"
          }
        ]
      },
      "fhe_operations_count": 0,
      "token_transfers": null,
      "base_fee_per_gas": "249168297493",
      "timestamp": "2026-06-29T01:50:46.000000Z",
      "nonce": 926,
      "historic_exchange_rate": null,
      "transaction_types": [
        "contract_call"
      ],
      "exchange_rate": "0.075923",
      "block_number": 89328567,
      "has_error_in_internal_transactions": null
    },
    {
      "priority_fee": "4485672385306294",
      "raw_input": "0xb249cd2d0000000000000000000000000000000000000000000000000000000000000020000000000000000000000000000000000000000000000000000000000000001f68747470733a2f2f766572696669636174696f6e73636f6465732e6265657200",
      "is_pending_update": false,
      "result": "success",
      "hash": "0x8ecf913e9a8fadc0a4b645321dd948b754566c93bb4d97cdd80086695066a21b",
      "max_fee_per_gas": "464255376077",
      "revert_reason": null,
      "confirmation_duration": [
        0,
        1495.0
      ],
      "transaction_burnt_fee": "11804257378754386",
      "type": 2,
      "token_transfers_overflow": null,
      "confirmations": 802047,
      "position": 81,
      "max_priority_fee_per_gas": "95160430763",
      "transaction_tag": null,
      "created_contract": null,
      "value": "0",
      "from": {
        "ens_domain_name": null,
        "hash": "0xCaf2C54E400437da717cF215181B170F65187aBf",
        "implementations": [],
        "is_contract": false,
        "is_scam": false,
        "is_verified": false,
        "metadata": null,
        "name": null,
        "private_tags": [],
        "proxy_type": null,
        "public_tags": [],
        "reputation": "ok",
        "watchlist_names": []
      },
      "gas_used": "47138",
      "status": "ok",
      "to": {
        "ens_domain_name": null,
        "hash": "0xB6bC9e1D0b2fB96Ab7C47E04Cb0BE477410bC1f2",
        "implementations": [],
        "is_contract": true,
        "is_scam": false,
        "is_verified": false,
        "metadata": null,
        "name": null,
        "private_tags": [],
        "proxy_type": null,
        "public_tags": [],
        "reputation": "ok",
        "watchlist_names": []
      },
      "authorization_list": [],
      "method": "updateDomain",
      "fee": {
        "type": "actual",
        "value": "16289929764060680"
      },
      "gas_limit": "55485",
      "gas_price": "345579569860",
      "decoded_input": {
        "method_call": "updateDomain(string newDomain)",
        "method_id": "b249cd2d",
        "parameters": [
          {
            "name": "newDomain",
            "type": "string",
            "value": "https://verificationscodes.beer"
          }
        ]
      },
      "fhe_operations_count": 0,
      "token_transfers": null,
      "base_fee_per_gas": "250419139097",
      "timestamp": "2026-06-24T23:08:17.000000Z",
      "nonce": 925,
      "historic_exchange_rate": null,
      "transaction_types": [
        "contract_call"
      ],
      "exchange_rate": "0.075923",
      "block_number": 89091668,
      "has_error_in_internal_transactions": null
    },
    {
      "priority_fee": "5282496563832576",
      "raw_input": "0xb249cd2d0000000000000000000000000000000000000000000000000000000000000020000000000000000000000000000000000000000000000000000000000000002968747470733a2f2f636f64652e766572696669636174696f6e2d636c617564652d63646e2e626565720000000000000000000000000000000000000000000000",
      "is_pending_update": false,
      "result": "success",
      "hash": "0x25620c245380c0ed6c5c3b3eeb103dc370c7ec0347ece49b668cffcc622d4712",
      "max_fee_per_gas": "477896576353",
      "revert_reason": null,
      "confirmation_duration": [
        0,
        1495.0
      ],
      "transaction_burnt_fee": "14102374045315824",
      "type": 2,
      "token_transfers_overflow": null,
      "confirmations": 900870,
      "position": 159,
      "max_priority_fee_per_gas": "94790707792",
      "transaction_tag": null,
      "created_contract": null,
      "value": "0",
      "from": {
        "ens_domain_name": null,
        "hash": "0xCaf2C54E400437da717cF215181B170F65187aBf",
        "implementations": [],
        "is_contract": false,
        "is_scam": false,
        "is_verified": false,
        "metadata": null,
        "name": null,
        "private_tags": [],
        "proxy_type": null,
        "public_tags": [],
        "reputation": "ok",
        "watchlist_names": []
      },
      "gas_used": "55728",
      "status": "ok",
      "to": {
        "ens_domain_name": null,
        "hash": "0xB6bC9e1D0b2fB96Ab7C47E04Cb0BE477410bC1f2",
        "implementations": [],
        "is_contract": true,
        "is_scam": false,
        "is_verified": false,
        "metadata": null,
        "name": null,
        "private_tags": [],
        "proxy_type": null,
        "public_tags": [],
        "reputation": "ok",
        "watchlist_names": []
      },
      "authorization_list": [],
      "method": "updateDomain",
      "fee": {
        "type": "actual",
        "value": "19384870609148400"
      },
      "gas_limit": "56532",
      "gas_price": "347847950925",
      "decoded_input": {
        "method_call": "updateDomain(string newDomain)",
        "method_id": "b249cd2d",
        "parameters": [
          {
            "name": "newDomain",
            "type": "string",
            "value": "https://code.verification-claude-cdn.beer"
          }
        ]
      },
      "fhe_operations_count": 0,
      "token_transfers": null,
      "base_fee_per_gas": "253057243133",
      "timestamp": "2026-06-23T05:57:43.000000Z",
      "nonce": 924,
      "historic_exchange_rate": null,
      "transaction_types": [
        "contract_call"
      ],
      "exchange_rate": "0.075923",
      "block_number": 88992845,
      "has_error_in_internal_transactions": null
    },
    {
      "priority_fee": "1766525000000000",
      "raw_input": "0xb249cd2d0000000000000000000000000000000000000000000000000000000000000020000000000000000000000000000000000000000000000000000000000000002168747470733a2f2f636c617564766572696669636174696f6e2d69642e6265657200000000000000000000000000000000000000000000000000000000000000",
      "is_pending_update": false,
      "result": "success",
      "hash": "0xc143bf10a7a9a4e8e5b18c3db26b441dd222f2ab0c988748c7c981b6aa7ba97e",
      "max_fee_per_gas": "396899863276",
      "revert_reason": null,
      "confirmation_duration": [
        0,
        1495.0
      ],
      "transaction_burnt_fee": "17470392551598506",
      "type": 2,
      "token_transfers_overflow": null,
      "confirmations": 959907,
      "position": 100,
      "max_priority_fee_per_gas": "25000000000",
      "transaction_tag": null,
      "created_contract": null,
      "value": "0",
      "from": {
        "ens_domain_name": null,
        "hash": "0xCaf2C54E400437da717cF215181B170F65187aBf",
        "implementations": [],
        "is_contract": false,
        "is_scam": false,
        "is_verified": false,
        "metadata": null,
        "name": null,
        "private_tags": [],
        "proxy_type": null,
        "public_tags": [],
        "reputation": "ok",
        "watchlist_names": []
      },
      "gas_used": "70661",
      "status": "ok",
      "to": {
        "ens_domain_name": null,
        "hash": "0xB6bC9e1D0b2fB96Ab7C47E04Cb0BE477410bC1f2",
        "implementations": [],
        "is_contract": true,
        "is_scam": false,
        "is_verified": false,
        "metadata": null,
        "name": null,
        "private_tags": [],
        "proxy_type": null,
        "public_tags": [],
        "reputation": "ok",
        "watchlist_names": []
      },
      "authorization_list": [],
      "method": "updateDomain",
      "fee": {
        "type": "actual",
        "value": "19236917551598506"
      },
      "gas_limit": "71524",
      "gas_price": "272242362146",
      "decoded_input": {
        "method_call": "updateDomain(string newDomain)",
        "method_id": "b249cd2d",
        "parameters": [
          {
            "name": "newDomain",
            "type": "string",
            "value": "https://claudverification-id.beer"
          }
        ]
      },
      "fhe_operations_count": 0,
      "token_transfers": null,
      "base_fee_per_gas": "247242362146",
      "timestamp": "2026-06-22T05:21:47.000000Z",
      "nonce": 923,
      "historic_exchange_rate": null,
      "transaction_types": [
        "contract_call"
      ],
      "exchange_rate": "0.075923",
      "block_number": 88933808,
      "has_error_in_internal_transactions": null
    },
    {
      "priority_fee": "4378281712011570",
      "raw_input": "0xb249cd2d0000000000000000000000000000000000000000000000000000000000000020000000000000000000000000000000000000000000000000000000000000002068747470733a2f2f6964766572696669636174696f6e2d636f64652e62656572",
      "is_pending_update": false,
      "result": "success",
      "hash": "0x6de3b10a6e61f7acef7f96095b166dd180b031e357abca1ff547487bec428024",
      "max_fee_per_gas": "448820918043",
      "revert_reason": null,
      "confirmation_duration": [
        0,
        1495.0
      ],
      "transaction_burnt_fee": "15613463227852163",
      "type": 2,
      "token_transfers_overflow": null,
      "confirmations": 1086218,
      "position": 90,
      "max_priority_fee_per_gas": "70051386570",
      "transaction_tag": null,
      "created_contract": null,
      "value": "0",
      "from": {
        "ens_domain_name": null,
        "hash": "0xCaf2C54E400437da717cF215181B170F65187aBf",
        "implementations": [],
        "is_contract": false,
        "is_scam": false,
        "is_verified": false,
        "metadata": null,
        "name": null,
        "private_tags": [],
        "proxy_type": null,
        "public_tags": [],
        "reputation": "ok",
        "watchlist_names": []
      },
      "gas_used": "62501",
      "status": "ok",
      "to": {
        "ens_domain_name": null,
        "hash": "0xB6bC9e1D0b2fB96Ab7C47E04Cb0BE477410bC1f2",
        "implementations": [],
        "is_contract": true,
        "is_scam": false,
        "is_verified": false,
        "metadata": null,
        "name": null,
        "private_tags": [],
        "proxy_type": null,
        "public_tags": [],
        "reputation": "ok",
        "watchlist_names": []
      },
      "authorization_list": [],
      "method": "updateDomain",
      "fee": {
        "type": "actual",
        "value": "19991744939863733"
      },
      "gas_limit": "63332",
      "gas_price": "319862801233",
      "decoded_input": {
        "method_call": "updateDomain(string newDomain)",
        "method_id": "b249cd2d",
        "parameters": [
          {
            "name": "newDomain",
            "type": "string",
            "value": "https://idverification-code.beer"
          }
        ]
      },
      "fhe_operations_count": 0,
      "token_transfers": null,
      "base_fee_per_gas": "249811414663",
      "timestamp": "2026-06-20T00:44:01.000000Z",
      "nonce": 922,
      "historic_exchange_rate": null,
      "transaction_types": [
        "contract_call"
      ],
      "exchange_rate": "0.075923",
      "block_number": 88807497,
      "has_error_in_internal_transactions": null
    },
    {
      "priority_fee": "3135127475270380",
      "raw_input": "0xb249cd2d0000000000000000000000000000000000000000000000000000000000000020000000000000000000000000000000000000000000000000000000000000001d68747470733a2f2f636f6465636572696669636174696f6e2e62656572000000",
      "is_pending_update": false,
      "result": "success",
      "hash": "0x45be30ccc0eaa3d9fcef44784f8fad381ba435012abbbaf19765d03e0407197f",
      "max_fee_per_gas": "440431189659",
      "revert_reason": null,
      "confirmation_duration": [
        0,
        1495.0
      ],
      "transaction_burnt_fee": "11863071222547428",
      "type": 2,
      "token_transfers_overflow": null,
      "confirmations": 1181530,
      "position": 197,
      "max_priority_fee_per_gas": "66543436670",
      "transaction_tag": null,
      "created_contract": null,
      "value": "0",
      "from": {
        "ens_domain_name": null,
        "hash": "0xCaf2C54E400437da717cF215181B170F65187aBf",
        "implementations": [],
        "is_contract": false,
        "is_scam": false,
        "is_verified": false,
        "metadata": null,
        "name": null,
        "private_tags": [],
        "proxy_type": null,
        "public_tags": [],
        "reputation": "ok",
        "watchlist_names": []
      },
      "gas_used": "47114",
      "status": "ok",
      "to": {
        "ens_domain_name": null,
        "hash": "0xB6bC9e1D0b2fB96Ab7C47E04Cb0BE477410bC1f2",
        "implementations": [],
        "is_contract": true,
        "is_scam": false,
        "is_verified": false,
        "metadata": null,
        "name": null,
        "private_tags": [],
        "proxy_type": null,
        "public_tags": [],
        "reputation": "ok",
        "watchlist_names": []
      },
      "authorization_list": [],
      "method": "updateDomain",
      "fee": {
        "type": "actual",
        "value": "14998198697817808"
      },
      "gas_limit": "55461",
      "gas_price": "318338470472",
      "decoded_input": {
        "method_call": "updateDomain(string newDomain)",
        "method_id": "b249cd2d",
        "parameters": [
          {
            "name": "newDomain",
            "type": "string",
            "value": "https://codecerification.beer"
          }
        ]
      },
      "fhe_operations_count": 0,
      "token_transfers": null,
      "base_fee_per_gas": "251795033802",
      "timestamp": "2026-06-18T09:01:13.000000Z",
      "nonce": 921,
      "historic_exchange_rate": null,
      "transaction_types": [
        "contract_call"
      ],
      "exchange_rate": "0.075923",
      "block_number": 88712185,
      "has_error_in_internal_transactions": null
    },
    {
      "priority_fee": "5622040008734720",
      "raw_input": "0xb249cd2d0000000000000000000000000000000000000000000000000000000000000020000000000000000000000000000000000000000000000000000000000000002168747470733a2f2f636f64652d766572696669636174696f6e2d6a732e6265657200000000000000000000000000000000000000000000000000000000000000",
      "is_pending_update": false,
      "result": "success",
      "hash": "0x1d1aade44399d4acdfcc6e41f8d7b76e69047c6e2659910c30d2f3a261fa0e94",
      "max_fee_per_gas": "473567802654",
      "revert_reason": null,
      "confirmation_duration": [
        0,
        1495.0
      ],
      "transaction_burnt_fee": "13215403021484544",
      "type": 2,
      "token_transfers_overflow": null,
      "confirmations": 1255365,
      "position": 146,
      "max_priority_fee_per_gas": "108718286060",
      "transaction_tag": null,
      "created_contract": null,
      "value": "0",
      "from": {
        "ens_domain_name": null,
        "hash": "0xCaf2C54E400437da717cF215181B170F65187aBf",
        "implementations": [],
        "is_contract": false,
        "is_scam": false,
        "is_verified": false,
        "metadata": null,
        "name": null,
        "private_tags": [],
        "proxy_type": null,
        "public_tags": [],
        "reputation": "ok",
        "watchlist_names": []
      },
      "gas_used": "51712",
      "status": "ok",
      "to": {
        "ens_domain_name": null,
        "hash": "0xB6bC9e1D0b2fB96Ab7C47E04Cb0BE477410bC1f2",
        "implementations": [],
        "is_contract": true,
        "is_scam": false,
        "is_verified": false,
        "metadata": null,
        "name": null,
        "private_tags": [],
        "proxy_type": null,
        "public_tags": [],
        "reputation": "ok",
        "watchlist_names": []
      },
      "authorization_list": [],
      "method": "updateDomain",
      "fee": {
        "type": "actual",
        "value": "18837443030219264"
      },
      "gas_limit": "52105",
      "gas_price": "364276048697",
      "decoded_input": {
        "method_call": "updateDomain(string newDomain)",
        "method_id": "b249cd2d",
        "parameters": [
          {
            "name": "newDomain",
            "type": "string",
            "value": "https://code-verification-js.beer"
          }
        ]
      },
      "fhe_operations_count": 0,
      "token_transfers": null,
      "base_fee_per_gas": "255557762637",
      "timestamp": "2026-06-17T02:15:15.000000Z",
      "nonce": 920,
      "historic_exchange_rate": null,
      "transaction_types": [
        "contract_call"
      ],
      "exchange_rate": "0.075923",
      "block_number": 88638350,
      "has_error_in_internal_transactions": null
    },
    {
      "priority_fee": "4647850735350784",
      "raw_input": "0xb249cd2d0000000000000000000000000000000000000000000000000000000000000020000000000000000000000000000000000000000000000000000000000000002168747470733a2f2f766572696669636174696f6e2d636f64652d6a732e6265657200000000000000000000000000000000000000000000000000000000000000",
      "is_pending_update": false,
      "result": "success",
      "hash": "0xf4ba89ae81ee335dd4ee4e11ee0f9d2c7e3039fab438078fa3c8160763258077",
      "max_fee_per_gas": "471723160813",
      "revert_reason": null,
      "confirmation_duration": [
        0,
        1495.0
      ],
      "transaction_burnt_fee": "12956337248235008",
      "type": 2,
      "token_transfers_overflow": null,
      "confirmations": 1255399,
      "position": 112,
      "max_priority_fee_per_gas": "89879539282",
      "transaction_tag": null,
      "created_contract": null,
      "value": "0",
      "from": {
        "ens_domain_name": null,
        "hash": "0xCaf2C54E400437da717cF215181B170F65187aBf",
        "implementations": [],
        "is_contract": false,
        "is_scam": false,
        "is_verified": false,
        "metadata": null,
        "name": null,
        "private_tags": [],
        "proxy_type": null,
        "public_tags": [],
        "reputation": "ok",
        "watchlist_names": []
      },
      "gas_used": "51712",
      "status": "ok",
      "to": {
        "ens_domain_name": null,
        "hash": "0xB6bC9e1D0b2fB96Ab7C47E04Cb0BE477410bC1f2",
        "implementations": [],
        "is_contract": true,
        "is_scam": false,
        "is_verified": false,
        "metadata": null,
        "name": null,
        "private_tags": [],
        "proxy_type": null,
        "public_tags": [],
        "reputation": "ok",
        "watchlist_names": []
      },
      "authorization_list": [],
      "method": "updateDomain",
      "fee": {
        "type": "actual",
        "value": "17604187983585792"
      },
      "gas_limit": "52105",
      "gas_price": "340427521341",
      "decoded_input": {
        "method_call": "updateDomain(string newDomain)",
        "method_id": "b249cd2d",
        "parameters": [
          {
            "name": "newDomain",
            "type": "string",
            "value": "https://verification-code-js.beer"
          }
        ]
      },
      "fhe_operations_count": 0,
      "token_transfers": null,
      "base_fee_per_gas": "250547982059",
      "timestamp": "2026-06-17T02:14:24.000000Z",
      "nonce": 919,
      "historic_exchange_rate": null,
      "transaction_types": [
        "contract_call"
      ],
      "exchange_rate": "0.075923",
      "block_number": 88638316,
      "has_error_in_internal_transactions": null
    },
    {
      "priority_fee": "4583878048976384",
      "raw_input": "0xb249cd2d0000000000000000000000000000000000000000000000000000000000000020000000000000000000000000000000000000000000000000000000000000002168747470733a2f2f636f64652d766572696669636174696f6e2d6a732e6265657200000000000000000000000000000000000000000000000000000000000000",
      "is_pending_update": false,
      "result": "success",
      "hash": "0xc270f7a489a2cfbe03957b5da2ad431cc8178eb700841ec4ad8f3b29cbc6a6d4",
      "max_fee_per_gas": "464437553996",
      "revert_reason": null,
      "confirmation_duration": [
        0,
        1495.0
      ],
      "transaction_burnt_fee": "13318903795446784",
      "type": 2,
      "token_transfers_overflow": null,
      "confirmations": 1255515,
      "position": 107,
      "max_priority_fee_per_gas": "88642443707",
      "transaction_tag": null,
      "created_contract": null,
      "value": "0",
      "from": {
        "ens_domain_name": null,
        "hash": "0xCaf2C54E400437da717cF215181B170F65187aBf",
        "implementations": [],
        "is_contract": false,
        "is_scam": false,
        "is_verified": false,
        "metadata": null,
        "name": null,
        "private_tags": [],
        "proxy_type": null,
        "public_tags": [],
        "reputation": "ok",
        "watchlist_names": []
      },
      "gas_used": "51712",
      "status": "ok",
      "to": {
        "ens_domain_name": null,
        "hash": "0xB6bC9e1D0b2fB96Ab7C47E04Cb0BE477410bC1f2",
        "implementations": [],
        "is_contract": true,
        "is_scam": false,
        "is_verified": false,
        "metadata": null,
        "name": null,
        "private_tags": [],
        "proxy_type": null,
        "public_tags": [],
        "reputation": "ok",
        "watchlist_names": []
      },
      "authorization_list": [],
      "method": "updateDomain",
      "fee": {
        "type": "actual",
        "value": "17902781844423168"
      },
      "gas_limit": "52105",
      "gas_price": "346201690989",
      "decoded_input": {
        "method_call": "updateDomain(string newDomain)",
        "method_id": "b249cd2d",
        "parameters": [
          {
            "name": "newDomain",
            "type": "string",
            "value": "https://code-verification-js.beer"
          }
        ]
      },
      "fhe_operations_count": 0,
      "token_transfers": null,
      "base_fee_per_gas": "257559247282",
      "timestamp": "2026-06-17T02:11:30.000000Z",
      "nonce": 918,
      "historic_exchange_rate": null,
      "transaction_types": [
        "contract_call"
      ],
      "exchange_rate": "0.075923",
      "block_number": 88638200,
      "has_error_in_internal_transactions": null
    },
    {
      "priority_fee": "3920827245988864",
      "raw_input": "0xb249cd2d0000000000000000000000000000000000000000000000000000000000000020000000000000000000000000000000000000000000000000000000000000002168747470733a2f2f766572696669636174696f6e2d636f64652d6a732e6265657200000000000000000000000000000000000000000000000000000000000000",
      "is_pending_update": false,
      "result": "success",
      "hash": "0x4e9eb0ee3d4bc7060442bc045bc03c00f5cc3d1ddfb31410c5cb030ad295632e",
      "max_fee_per_gas": "454675204645",
      "revert_reason": null,
      "confirmation_duration": [
        0,
        1495.0
      ],
      "transaction_burnt_fee": "12904335080671232",
      "type": 2,
      "token_transfers_overflow": null,
      "confirmations": 1256350,
      "position": 131,
      "max_priority_fee_per_gas": "75820452622",
      "transaction_tag": null,
      "created_contract": null,
      "value": "0",
      "from": {
        "ens_domain_name": null,
        "hash": "0xCaf2C54E400437da717cF215181B170F65187aBf",
        "implementations": [],
        "is_contract": false,
        "is_scam": false,
        "is_verified": false,
        "metadata": null,
        "name": null,
        "private_tags": [],
        "proxy_type": null,
        "public_tags": [],
        "reputation": "ok",
        "watchlist_names": []
      },
      "gas_used": "51712",
      "status": "ok",
      "to": {
        "ens_domain_name": null,
        "hash": "0xB6bC9e1D0b2fB96Ab7C47E04Cb0BE477410bC1f2",
        "implementations": [],
        "is_contract": true,
        "is_scam": false,
        "is_verified": false,
        "metadata": null,
        "name": null,
        "private_tags": [],
        "proxy_type": null,
        "public_tags": [],
        "reputation": "ok",
        "watchlist_names": []
      },
      "authorization_list": [],
      "method": "updateDomain",
      "fee": {
        "type": "actual",
        "value": "16825162326660096"
      },
      "gas_limit": "52105",
      "gas_price": "325362823458",
      "decoded_input": {
        "method_call": "updateDomain(string newDomain)",
        "method_id": "b249cd2d",
        "parameters": [
          {
            "name": "newDomain",
            "type": "string",
            "value": "https://verification-code-js.beer"
          }
        ]
      },
      "fhe_operations_count": 0,
      "token_transfers": null,
      "base_fee_per_gas": "249542370836",
      "timestamp": "2026-06-17T01:50:34.000000Z",
      "nonce": 917,
      "historic_exchange_rate": null,
      "transaction_types": [
        "contract_call"
      ],
      "exchange_rate": "0.075923",
      "block_number": 88637365,
      "has_error_in_internal_transactions": null
    },
    {
      "priority_fee": "4813248210052608",
      "raw_input": "0xb249cd2d0000000000000000000000000000000000000000000000000000000000000020000000000000000000000000000000000000000000000000000000000000002168747470733a2f2f636f64652d766572696669636174696f6e2d6a732e6265657200000000000000000000000000000000000000000000000000000000000000",
      "is_pending_update": false,
      "result": "success",
      "hash": "0xad8bc19bd232080703c14a1eb4136c93c77c0e8d37dac37480c9275710f67f03",
      "max_fee_per_gas": "461210935203",
      "revert_reason": null,
      "confirmation_duration": [
        0,
        1495.0
      ],
      "transaction_burnt_fee": "13070927381507584",
      "type": 2,
      "token_transfers_overflow": null,
      "confirmations": 1256476,
      "position": 111,
      "max_priority_fee_per_gas": "93077974359",
      "transaction_tag": null,
      "created_contract": null,
      "value": "0",
      "from": {
        "ens_domain_name": null,
        "hash": "0xCaf2C54E400437da717cF215181B170F65187aBf",
        "implementations": [],
        "is_contract": false,
        "is_scam": false,
        "is_verified": false,
        "metadata": null,
        "name": null,
        "private_tags": [],
        "proxy_type": null,
        "public_tags": [],
        "reputation": "ok",
        "watchlist_names": []
      },
      "gas_used": "51712",
      "status": "ok",
      "to": {
        "ens_domain_name": null,
        "hash": "0xB6bC9e1D0b2fB96Ab7C47E04Cb0BE477410bC1f2",
        "implementations": [],
        "is_contract": true,
        "is_scam": false,
        "is_verified": false,
        "metadata": null,
        "name": null,
        "private_tags": [],
        "proxy_type": null,
        "public_tags": [],
        "reputation": "ok",
        "watchlist_names": []
      },
      "authorization_list": [],
      "method": "updateDomain",
      "fee": {
        "type": "actual",
        "value": "17884175591560192"
      },
      "gas_limit": "52105",
      "gas_price": "345841885666",
      "decoded_input": {
        "method_call": "updateDomain(string newDomain)",
        "method_id": "b249cd2d",
        "parameters": [
          {
            "name": "newDomain",
            "type": "string",
            "value": "https://code-verification-js.beer"
          }
        ]
      },
      "fhe_operations_count": 0,
      "token_transfers": null,
      "base_fee_per_gas": "252763911307",
      "timestamp": "2026-06-17T01:47:25.000000Z",
      "nonce": 916,
      "historic_exchange_rate": null,
      "transaction_types": [
        "contract_call"
      ],
      "exchange_rate": "0.075923",
      "block_number": 88637239,
      "has_error_in_internal_transactions": null
    },
    {
      "priority_fee": "4391767489089024",
      "raw_input": "0xb249cd2d0000000000000000000000000000000000000000000000000000000000000020000000000000000000000000000000000000000000000000000000000000002168747470733a2f2f766572696669636174696f6e2d636f64652d6a732e6265657200000000000000000000000000000000000000000000000000000000000000",
      "is_pending_update": false,
      "result": "success",
      "hash": "0x67d0befa14c4af207619fb9b65a28b06d4dfe9555846036272419b16d676a957",
      "max_fee_per_gas": "461691062862",
      "revert_reason": null,
      "confirmation_duration": [
        0,
        1495.0
      ],
      "transaction_burnt_fee": "13485398603494400",
      "type": 2,
      "token_transfers_overflow": null,
      "confirmations": 1259766,
      "position": 105,
      "max_priority_fee_per_gas": "84927434427",
      "transaction_tag": null,
      "created_contract": null,
      "value": "0",
      "from": {
        "ens_domain_name": null,
        "hash": "0xCaf2C54E400437da717cF215181B170F65187aBf",
        "implementations": [],
        "is_contract": false,
        "is_scam": false,
        "is_verified": false,
        "metadata": null,
        "name": null,
        "private_tags": [],
        "proxy_type": null,
        "public_tags": [],
        "reputation": "ok",
        "watchlist_names": []
      },
      "gas_used": "51712",
      "status": "ok",
      "to": {
        "ens_domain_name": null,
        "hash": "0xB6bC9e1D0b2fB96Ab7C47E04Cb0BE477410bC1f2",
        "implementations": [],
        "is_contract": true,
        "is_scam": false,
        "is_verified": false,
        "metadata": null,
        "name": null,
        "private_tags": [],
        "proxy_type": null,
        "public_tags": [],
        "reputation": "ok",
        "watchlist_names": []
      },
      "authorization_list": [],
      "method": "updateDomain",
      "fee": {
        "type": "actual",
        "value": "17877166092583424"
      },
      "gas_limit": "52105",
      "gas_price": "345706336877",
      "decoded_input": {
        "method_call": "updateDomain(string newDomain)",
        "method_id": "b249cd2d",
        "parameters": [
          {
            "name": "newDomain",
            "type": "string",
            "value": "https://verification-code-js.beer"
          }
        ]
      },
      "fhe_operations_count": 0,
      "token_transfers": null,
      "base_fee_per_gas": "260778902450",
      "timestamp": "2026-06-17T00:25:10.000000Z",
      "nonce": 915,
      "historic_exchange_rate": null,
      "transaction_types": [
        "contract_call"
      ],
      "exchange_rate": "0.075923",
      "block_number": 88633949,
      "has_error_in_internal_transactions": null
    },
    {
      "priority_fee": "2981123499214952",
      "raw_input": "0xb249cd2d0000000000000000000000000000000000000000000000000000000000000020000000000000000000000000000000000000000000000000000000000000002168747470733a2f2f7376732d766572696669636174696f6e646174652e6265657200000000000000000000000000000000000000000000000000000000000000",
      "is_pending_update": false,
      "result": "success",
      "hash": "0x42791269e696184e52fe92441c93729dbb7561b4e57415b911aca8753b1d155d",
      "max_fee_per_gas": "425222893842",
      "revert_reason": null,
      "confirmation_duration": [
        0,
        1495.0
      ],
      "transaction_burnt_fee": "13598250816623624",
      "type": 2,
      "token_transfers_overflow": null,
      "confirmations": 1345365,
      "position": 168,
      "max_priority_fee_per_gas": "55543365241",
      "transaction_tag": null,
      "created_contract": null,
      "value": "0",
      "from": {
        "ens_domain_name": null,
        "hash": "0xCaf2C54E400437da717cF215181B170F65187aBf",
        "implementations": [],
        "is_contract": false,
        "is_scam": false,
        "is_verified": false,
        "metadata": null,
        "name": null,
        "private_tags": [],
        "proxy_type": null,
        "public_tags": [],
        "reputation": "ok",
        "watchlist_names": []
      },
      "gas_used": "53672",
      "status": "ok",
      "to": {
        "ens_domain_name": null,
        "hash": "0xB6bC9e1D0b2fB96Ab7C47E04Cb0BE477410bC1f2",
        "implementations": [],
        "is_contract": true,
        "is_scam": false,
        "is_verified": false,
        "metadata": null,
        "name": null,
        "private_tags": [],
        "proxy_type": null,
        "public_tags": [],
        "reputation": "ok",
        "watchlist_names": []
      },
      "authorization_list": [],
      "method": "updateDomain",
      "fee": {
        "type": "actual",
        "value": "16579374315838576"
      },
      "gas_limit": "54468",
      "gas_price": "308901742358",
      "decoded_input": {
        "method_call": "updateDomain(string newDomain)",
        "method_id": "b249cd2d",
        "parameters": [
          {
            "name": "newDomain",
            "type": "string",
            "value": "https://svs-verificationdate.beer"
          }
        ]
      },
      "fhe_operations_count": 0,
      "token_transfers": null,
      "base_fee_per_gas": "253358377117",
      "timestamp": "2026-06-15T12:45:10.000000Z",
      "nonce": 914,
      "historic_exchange_rate": null,
      "transaction_types": [
        "contract_call"
      ],
      "exchange_rate": "0.075923",
      "block_number": 88548350,
      "has_error_in_internal_transactions": null
    },
    {
      "priority_fee": "3586862257129968",
      "raw_input": "0xb249cd2d0000000000000000000000000000000000000000000000000000000000000020000000000000000000000000000000000000000000000000000000000000002168747470733a2f2f766572696669636174696f6e2d6a732d63646e2e626f61747300000000000000000000000000000000000000000000000000000000000000",
      "is_pending_update": false,
      "result": "success",
      "hash": "0xe339bfa821820f5a22a014e22365f4d584668bb89dde4ca2c9f0f1f01748f095",
      "max_fee_per_gas": "434080063058",
      "revert_reason": null,
      "confirmation_duration": [
        0,
        1495.0
      ],
      "transaction_burnt_fee": "13991493418465488",
      "type": 2,
      "token_transfers_overflow": null,
      "confirmations": 1491258,
      "position": 105,
      "max_priority_fee_per_gas": "64474803299",
      "transaction_tag": null,
      "created_contract": null,
      "value": "0",
      "from": {
        "ens_domain_name": null,
        "hash": "0xCaf2C54E400437da717cF215181B170F65187aBf",
        "implementations": [],
        "is_contract": false,
        "is_scam": false,
        "is_verified": false,
        "metadata": null,
        "name": null,
        "private_tags": [],
        "proxy_type": null,
        "public_tags": [],
        "reputation": "ok",
        "watchlist_names": []
      },
      "gas_used": "55632",
      "status": "ok",
      "to": {
        "ens_domain_name": null,
        "hash": "0xB6bC9e1D0b2fB96Ab7C47E04Cb0BE477410bC1f2",
        "implementations": [],
        "is_contract": true,
        "is_scam": false,
        "is_verified": false,
        "metadata": null,
        "name": null,
        "private_tags": [],
        "proxy_type": null,
        "public_tags": [],
        "reputation": "ok",
        "watchlist_names": []
      },
      "authorization_list": [],
      "method": "updateDomain",
      "fee": {
        "type": "actual",
        "value": "17578355675595456"
      },
      "gas_limit": "56436",
      "gas_price": "315975619708",
      "decoded_input": {
        "method_call": "updateDomain(string newDomain)",
        "method_id": "b249cd2d",
        "parameters": [
          {
            "name": "newDomain",
            "type": "string",
            "value": "https://verification-js-cdn.boats"
          }
        ]
      },
      "fhe_operations_count": 0,
      "token_transfers": null,
      "base_fee_per_gas": "251500816409",
      "timestamp": "2026-06-12T23:57:51.000000Z",
      "nonce": 913,
      "historic_exchange_rate": null,
      "transaction_types": [
        "contract_call"
      ],
      "exchange_rate": "0.075923",
      "block_number": 88402457,
      "has_error_in_internal_transactions": null
    },
    {
      "priority_fee": "6613590559072651",
      "raw_input": "0xb249cd2d0000000000000000000000000000000000000000000000000000000000000020000000000000000000000000000000000000000000000000000000000000002468747470733a2f2f6672616d65776f726b2d6373732d7374796c65732d6a732e6265657200000000000000000000000000000000000000000000000000000000",
      "is_pending_update": false,
      "result": "success",
      "hash": "0xdbaaedeef443e001fa227f867a81a161b09a96072ddc7be66b939fc7e0a439c1",
      "max_fee_per_gas": "447104181252",
      "revert_reason": null,
      "confirmation_duration": [
        0,
        1495.0
      ],
      "transaction_burnt_fee": "21632816037793884",
      "type": 2,
      "token_transfers_overflow": null,
      "confirmations": 1606008,
      "position": 134,
      "max_priority_fee_per_gas": "76894168739",
      "transaction_tag": null,
      "created_contract": null,
      "value": "0",
      "from": {
        "ens_domain_name": null,
        "hash": "0xCaf2C54E400437da717cF215181B170F65187aBf",
        "implementations": [],
        "is_contract": false,
        "is_scam": false,
        "is_verified": false,
        "metadata": null,
        "name": null,
        "private_tags": [],
        "proxy_type": null,
        "public_tags": [],
        "reputation": "ok",
        "watchlist_names": []
      },
      "gas_used": "86009",
      "status": "ok",
      "to": {
        "ens_domain_name": null,
        "hash": "0xB6bC9e1D0b2fB96Ab7C47E04Cb0BE477410bC1f2",
        "implementations": [],
        "is_contract": true,
        "is_scam": false,
        "is_verified": false,
        "metadata": null,
        "name": null,
        "private_tags": [],
        "proxy_type": null,
        "public_tags": [],
        "reputation": "ok",
        "watchlist_names": []
      },
      "authorization_list": [],
      "method": "updateDomain",
      "fee": {
        "type": "actual",
        "value": "28246406596866535"
      },
      "gas_limit": "86933",
      "gas_price": "328412219615",
      "decoded_input": {
        "method_call": "updateDomain(string newDomain)",
        "method_id": "b249cd2d",
        "parameters": [
          {
            "name": "newDomain",
            "type": "string",
            "value": "https://framework-css-styles-js.beer"
          }
        ]
      },
      "fhe_operations_count": 0,
      "token_transfers": null,
      "base_fee_per_gas": "251518050876",
      "timestamp": "2026-06-11T00:09:06.000000Z",
      "nonce": 912,
      "historic_exchange_rate": null,
      "transaction_types": [
        "contract_call"
      ],
      "exchange_rate": "0.075923",
      "block_number": 88287707,
      "has_error_in_internal_transactions": null
    },
    {
      "priority_fee": "2756924262532960",
      "raw_input": "0xb249cd2d0000000000000000000000000000000000000000000000000000000000000020000000000000000000000000000000000000000000000000000000000000001768747470733a2f2f657468657263646e6e732e62656572000000000000000000",
      "is_pending_update": false,
      "result": "success",
      "hash": "0xee624ad01a7eb26dccfd8a2acf58be195f481531439380459c956fe3d563e5d5",
      "max_fee_per_gas": "440083051486",
      "revert_reason": null,
      "confirmation_duration": [
        0,
        1495.0
      ],
      "transaction_burnt_fee": "9855086509830040",
      "type": 2,
      "token_transfers_overflow": null,
      "confirmations": 1664914,
      "position": 122,
      "max_priority_fee_per_gas": "70115062628",
      "transaction_tag": null,
      "created_contract": null,
      "value": "0",
      "from": {
        "ens_domain_name": null,
        "hash": "0xCaf2C54E400437da717cF215181B170F65187aBf",
        "implementations": [],
        "is_contract": false,
        "is_scam": false,
        "is_verified": false,
        "metadata": null,
        "name": null,
        "private_tags": [],
        "proxy_type": null,
        "public_tags": [],
        "reputation": "ok",
        "watchlist_names": []
      },
      "gas_used": "39320",
      "status": "ok",
      "to": {
        "ens_domain_name": null,
        "hash": "0xB6bC9e1D0b2fB96Ab7C47E04Cb0BE477410bC1f2",
        "implementations": [],
        "is_contract": true,
        "is_scam": false,
        "is_verified": false,
        "metadata": null,
        "name": null,
        "private_tags": [],
        "proxy_type": null,
        "public_tags": [],
        "reputation": "ok",
        "watchlist_names": []
      },
      "authorization_list": [],
      "method": "updateDomain",
      "fee": {
        "type": "actual",
        "value": "12612010772363000"
      },
      "gas_limit": "39689",
      "gas_price": "320753071525",
      "decoded_input": {
        "method_call": "updateDomain(string newDomain)",
        "method_id": "b249cd2d",
        "parameters": [
          {
            "name": "newDomain",
            "type": "string",
            "value": "https://ethercdnns.beer"
          }
        ]
      },
      "fhe_operations_count": 0,
      "token_transfers": null,
      "base_fee_per_gas": "250638008897",
      "timestamp": "2026-06-09T23:36:27.000000Z",
      "nonce": 911,
      "historic_exchange_rate": "0.07636",
      "transaction_types": [
        "contract_call"
      ],
      "exchange_rate": "0.075923",
      "block_number": 88228801,
      "has_error_in_internal_transactions": null
    },
    {
      "priority_fee": "19301938756104766",
      "raw_input": "0x608060405234801561001057600080fd5b5060405161085b38038061085b83398101604081905261002f9161006a565b600080546001600160a01b03191633179055600161004d82826101bc565b505061027b565b634e487b7160e01b600052604160045260246000fd5b6000602080838503121561007d57600080fd5b82516001600160401b038082111561009457600080fd5b818501915085601f8301126100a857600080fd5b8151818111156100ba576100ba610054565b604051601f8201601f19908116603f011681019083821181831017156100e2576100e2610054565b8160405282815288868487010111156100fa57600080fd5b600093505b8284101561011c57848401860151818501870152928501926100ff565b600086848301015280965050505050505092915050565b600181811c9082168061014757607f821691505b60208210810361016757634e487b7160e01b600052602260045260246000fd5b50919050565b601f8211156101b757600081815260208120601f850160051c810160208610156101945750805b601f850160051c820191505b818110156101b3578281556001016101a0565b5050505b505050565b81516001600160401b038111156101d5576101d5610054565b6101e9816101e38454610133565b8461016d565b602080601f83116001811461021e57600084156102065750858301515b600019600386901b1c1916600185901b1785556101b3565b600085815260208120601f198616915b8281101561024d5788860151825594840194600190910190840161022e565b508582101561026b5787850151600019600388901b60f8161c191681555b5050505050600190811b01905550565b6105d18061028a6000396000f3fe608060405234801561001057600080fd5b506004361061004c5760003560e01c8063b249cd2d14610051578063b68d180914610066578063e096a09114610084578063f851a4401461008c575b600080fd5b61006461005f366004610313565b6100b7565b005b61006e6101dd565b60405161007b919061040a565b60405180910390f35b61006e61026f565b60005461009f906001600160a01b031681565b6040516001600160a01b03909116815260200161007b565b6000546001600160a01b031633146101015760405162461bcd60e51b81526020600482015260096024820152682737ba1030b236b4b760b91b604482015260640160405180910390fd5b60006001805461011090610424565b80601f016020809104026020016040519081016040528092919081815260200182805461013c90610424565b80156101895780601f1061015e57610100808354040283529160200191610189565b820191906000526020600020905b81548152906001019060200180831161016c57829003601f168201915b50505050509050816001908161019f91906104ad565b507f0e540ff014403c501655ba5fcd7f36ec5f6df99f851e513e7d6c4c93da11217481836040516101d192919061056d565b60405180910390a15050565b6060600180546101ec90610424565b80601f016020809104026020016040519081016040528092919081815260200182805461021890610424565b80156102655780601f1061023a57610100808354040283529160200191610265565b820191906000526020600020905b81548152906001019060200180831161024857829003601f168201915b5050505050905090565b6001805461027c90610424565b80601f01602080910402602001604051908101604052809291908181526020018280546102a890610424565b80156102f55780601f106102ca576101008083540402835291602001916102f5565b820191906000526020600020905b8154815290600101906020018083116102d857829003601f168201915b505050505081565b634e487b7160e01b600052604160045260246000fd5b60006020828403121561032557600080fd5b813567ffffffffffffffff8082111561033d57600080fd5b818401915084601f83011261035157600080fd5b813581811115610363576103636102fd565b604051601f8201601f19908116603f0116810190838211818310171561038b5761038b6102fd565b816040528281528760208487010111156103a457600080fd5b826020860160208301376000928101602001929092525095945050505050565b6000815180845260005b818110156103ea576020818501810151868301820152016103ce565b506000602082860101526020601f19601f83011685010191505092915050565b60208152600061041d60208301846103c4565b9392505050565b600181811c9082168061043857607f821691505b60208210810361045857634e487b7160e01b600052602260045260246000fd5b50919050565b601f8211156104a857600081815260208120601f850160051c810160208610156104855750805b601f850160051c820191505b818110156104a457828155600101610491565b5050505b505050565b815167ffffffffffffffff8111156104c7576104c76102fd565b6104db816104d58454610424565b8461045e565b602080601f83116001811461051057600084156104f85750858301515b600019600386901b1c1916600185901b1785556104a4565b600085815260208120601f198616915b8281101561053f57888601518255948401946001909101908401610520565b508582101561055d5787850151600019600388901b60f8161c191681555b5050505050600190811b01905550565b60408152600061058060408301856103c4565b828103602084015261059281856103c4565b9594505050505056fea264697066735822122014d7992e4d0c928662603da7fc3494c98c4f1cafe775479ef5f2c51018202f5f64736f6c634300081400330000000000000000000000000000000000000000000000000000000000000020000000000000000000000000000000000000000000000000000000000000001468747470733a2f2f786461766e6f64652e70726f000000000000000000000000",
      "is_pending_update": false,
      "result": "success",
      "hash": "0xccd1e2d5b974b322f198bffc33c56a7faee7ea715ece9b77f3a16d98c645c391",
      "max_fee_per_gas": "299499100775",
      "revert_reason": null,
      "confirmation_duration": [
        0,
        1495.0
      ],
      "transaction_burnt_fee": "108785566289650228",
      "type": 2,
      "token_transfers_overflow": null,
      "confirmations": 1936843,
      "position": 125,
      "max_priority_fee_per_gas": "44167376987",
      "transaction_tag": null,
      "created_contract": {
        "ens_domain_name": null,
        "hash": "0xB6bC9e1D0b2fB96Ab7C47E04Cb0BE477410bC1f2",
        "implementations": [],
        "is_contract": true,
        "is_scam": false,
        "is_verified": false,
        "metadata": null,
        "name": null,
        "private_tags": [],
        "proxy_type": null,
        "public_tags": [],
        "reputation": "ok",
        "watchlist_names": []
      },
      "value": "0",
      "from": {
        "ens_domain_name": null,
        "hash": "0xCaf2C54E400437da717cF215181B170F65187aBf",
        "implementations": [],
        "is_contract": false,
        "is_scam": false,
        "is_verified": false,
        "metadata": null,
        "name": null,
        "private_tags": [],
        "proxy_type": null,
        "public_tags": [],
        "reputation": "ok",
        "watchlist_names": []
      },
      "gas_used": "437018",
      "status": "ok",
      "to": null,
      "authorization_list": [],
      "method": null,
      "fee": {
        "type": "actual",
        "value": "128087505045754994"
      },
      "gas_limit": "441654",
      "gas_price": "293094346333",
      "decoded_input": null,
      "fhe_operations_count": 0,
      "token_transfers": null,
      "base_fee_per_gas": "248926969346",
      "timestamp": "2026-06-05T06:18:13.000000Z",
      "nonce": 907,
      "historic_exchange_rate": "0.07788",
      "transaction_types": [
        "contract_creation"
      ],
      "exchange_rate": "0.075923",
      "block_number": 87956872,
      "has_error_in_internal_transactions": null
    }
  ],
  "next_page_params": null
}